:020000040800F2
:100000000010002011050008F5040008F90400089C
:1000100000000000000000000000000000000000E0
:100020000000000000000000000000004523000860
:1000300000000000000000002124000865240008E2
:100040006105000800000000610500086105000866
:1000500061050008610500086105000861050008E8
:100060000000000061050008610500086105000846
:100070006105000861050008610500080000000036
:100080006105000800000000000000006105000894
:1000900000000000FD04000861050008610500087B
:1000A0000000000061050008000000006105000874
:1000B0000000000000000000000000000000000040
:1000C00010B5064C2378002B07D1054B002B02D02E
:1000D000044800E000BF0123237010BD6000002031
:1000E0000000000048280008044B10B5002B03D086
:1000F0000349044800E000BF10BDC04600000000F6
:100100006400002048280008002243088B4274D372
:1001100003098B425FD3030A8B4244D3030B8B4208
:1001200028D3030C8B420DD3FF22090212BA030C11
:100130008B4202D31212090265D0030B8B4219D3F2
:1001400000E0090AC30B8B4201D3CB03C01A524112
:10015000830B8B4201D38B03C01A5241430B8B425A
:1001600001D34B03C01A5241030B8B4201D30B0343
:10017000C01A5241C30A8B4201D3CB02C01A52416A
:10018000830A8B4201D38B02C01A5241430A8B422D
:1001900001D34B02C01A5241030A8B4201D30B0216
:1001A000C01A5241CDD2C3098B4201D3CB01C01A30
:1001B000524183098B4201D38B01C01A524143093A
:1001C0008B4201D34B01C01A524103098B4201D328
:1001D0000B01C01A5241C3088B4201D3CB00C01A95
:1001E000524183088B4201D38B00C01A524143080D
:1001F0008B4201D34B00C01A5241411A00D2014632
:10020000524110467047FFE701B5002000F006F8A4
:1002100002BDC0460029F7D076E770477047C04658
:10022000034B0360034B0B60602313607047C046B1
:10023000FC0100207C00002010B580219020C90125
:10024000C00500F001FBFA20400001F013FBF4E7C9
:1002500030B595B0182200210AA802F00FFA10223A
:100260000021684602F00AFA1022002104A802F0D8
:1002700005FA012301220892099380235B0211935E
:10028000802302240125DB0208A810941293139501
:1002900000F0E2FA002801D072B6FEE707230290D0
:1002A0000390012168460093019400F02FFD00287F
:1002B00001D072B6FEE7069004A8049500F03EFE59
:1002C000002801D072B6FEE715B030BD30B58BB056
:1002D00002AC00F047F9FFF7BBFF14220021200019
:1002E00002F0CCF98021274BC9035A6990200A43B8
:1002F0005A615A69C0050A4080210092009A5A69E1
:1003000089020A435A615B6900220B4080210193F4
:10031000C901019B00F092FA80220123D2019020B2
:100320000292039300220023C0052100049205934A
:1003300000F078F91448154B0C22036096231B0239
:100340004360002342618360C36003618361C361D2
:100350000362436201F096F9002801D072B6FEE70D
:1003600022000B4B23CB23C223CB23C21B680021CB
:100370001360200001F048FA064B186001F03EFAC5
:10038000FEE7C04600100240A002002000380140F5
:10039000602800089C020020044B026810B59A42B5
:1003A00000D010BD00F0EEF8FBE7C046004401406D
:1003B00001220D4B00B59969022011439961996999
:1003C00083B00A4080210092009ADA6949050A4305
:1003D000DA61DB6900220B40019303214042019B5B
:1003E00000F0E2F803B000BD0010024010B50400B8
:1003F00088B01422002102A802F040F9134B2268B1
:100400009A4201D008B010BD8021114BC9019A69F0
:1004100090200A439A619A69C0050A40802100929F
:10042000009A5A6989020A435A615B69C0220B40EB
:100430000193019B0223D20002920393032302A99A
:100440000593023B069300F0EDF8DBE7003801402E
:10045000001002408021214B70B59A6989020A433D
:100460009A619B6986B00B4001930600694602A819
:10047000019B00F047FD059B002B17D100F032FDDA
:10048000174C184B18492360184BE360FFF73CFEEC
:1004900000230138606020002361A360A36100F0A5
:1004A000EDFD051E06D0280006B070BD00F01AFD57
:1004B0004000E5E7200000F04FFE051EF3D11520B7
:1004C00000F0A4F8032E01D90125ECE70022310049
:1004D000152000F069F8064B1E60E4E700100240AA
:1004E000280300200044014040420F00E7030000C1
:1004F00008000020FEE7C046FEE7C04610B50248EF
:1005000000F05AFE10BDC046280300207047C046C8
:100510000D488546FFF7FAFF0C480D490D4A0023A8
:1005200002E0D458C4500433C4188C42F9D30A4AA8
:100530000A4C002301E013600432A242FBD302F014
:1005400003F9FFF7C3FEFEE70010002000000020C3
:1005500060000020CC28000860000020F40D00207E
:10056000FEE700001021064A10B5136803200B4374
:100570001360FFF76FFFFFF71BFF002010BDC046A1
:1005800000200240034A044B11681B785B1813607B
:100590007047C0467003002004000020014B18681B
:1005A0007047C0467003002070B5002814DB154B5F
:1005B00003229C46FF23840802401800C026D20074
:1005C000890190400B409340A4006444B600A559B3
:1005D00085432B43A35170BD0B4A0F23944603223E
:1005E00003401040FC321500C000890185400A40DC
:1005F0008240083B9B089B006344DC69AC43224378
:10060000DA61E8E700E100E000ED00E0002805DB4A
:100610001F22012302409340014A13607047C046E5
:1006200000E100E0F0B5DE4657464E464546E0B5EF
:100630008C4609680022002387B000297CD0794CC1
:10064000E246A34601260C009E403440019431420C
:100650006CD05446032564682540AC46013D012D0D
:1006600000D870E06546032D00D0B3E066469640A2
:10067000F54302950768029D3D402E43C025AD021B
:1006800006602C4252D05D4601265F46AD69354377
:10069000BD61BD6903273540634E0595B446059D90
:1006A0001F409D08BF00AD006544BC46AE680F27E3
:1006B000B1466646B7403E004F46B743B94690271D
:1006C000FF05B84212D0594FB84200D19BE0584FB5
:1006D000B84200D19FE0574FB84200D18CE0664647
:1006E0000527B7403E004F463743B9464E46802760
:1006F000AE60514D019E7F03F643AD683C4200D091
:1007000077E035404C4FBD60FD68A7026ED43540A0
:10071000494FFD607D68A70365D43540464F7D6035
:100720003D68E4035BD43540434C25600C00013345
:10073000DC400232002C85D107B0F0BCBB46B2468B
:10074000A946A046F0BD8568A94603259540A84660
:10075000ED434F4602954546AF435546ED68B946D1
:100760002F009740B8464F4645462F43876045685F
:100770002F000125B74326092E409E403E43466088
:10078000C668029D2E40B0465646B668474696401B
:100790003E43C660674666469640022F00D069E732
:1007A000DD08AD00AC46844465462F6A07251D4030
:1007B000AD00A84603970F254746BD40039FAF43B2
:1007C0005546039747462D69BD40039F2F43654615
:1007D0002F624FE703259540ED430295D0E7019C3A
:1007E0002C432500A0E7019F3D4397E7019F3D4330
:1007F0008EE7019F3D4385E767460326BE404F468F
:100800003743B94672E766460127B7403E004F4678
:100810003743B9466AE767460226BE404F4637432C
:10082000B94663E7001002400000014000040048A0
:1008300000080048000C004800040140002A01D0D4
:10084000816170478162FCE7426913000B401B0421
:1008500091430B4383617047F0B5CE46474680B560
:10086000040083B0002800D1EEE00368DA0735D534
:100870000C21C34842680A40042A00D101E14268C1
:100880001140082900D1F8E06368012B0FD0002B3C
:1008900000D11EE1052B00D1A7E1B94BB9491A6877
:1008A0000A401A601A68B8490A401A6005E08023B5
:1008B000B34A5B0211680B431360FFF76FFE80269B
:1008C0000500AF4FB60205E0FFF768FE401B642845
:1008D00000D9FCE03B683342F6D023689A0729D55B
:1008E0000C22A7494868024200D1A6E048680240AD
:1008F000082A00D19DE0E368A14D002B00D11FE143
:1009000001222B68022713432B60FFF747FE0600E6
:1009100005E0FFF743FE801B022800D9D7E02B68D3
:100920001F42F6D0F8212A6823698A43DB0013436B
:100930002B6023681A072DD45A0744D58022002043
:100940008F4B5205D9698146114208D1D9691143AB
:10095000D961DB6913400193019B012399468027EC
:100960008A4E7F0033683B4200D194E0A368012B9C
:1009700000D1F8E0002B00D1C4E0052B00D140E10C
:1009800001217F4B1A6A8A431A621A6A03318A4329
:100990001A62ECE0E3697A4D002B5BD001226B6AAE
:1009A000022713436B62FFF7F9FD060005E0FFF72E
:1009B000F5FD801B022800D989E06B6A1F42F6D042
:1009C00023685A07BAD4DB0612D56369012B00D11C
:1009D0003DE1053300D0E9E00421F820684A536B7B
:1009E0008B435363516BA3698143DB000B43536318
:1009F000236A002B1BD00C22614D69680A40082A2B
:100A000000D108E1022B00D13FE12B68604A80262B
:100A100013402B60FFF7C2FDB604040004E0FFF7AB
:100A2000BDFD001B022852D82B683342F7D10020AD
:100A30000BE04A68D20300D55DE7514A126892077D
:100A400039D5E268012A36D0012003B0C0BCB946CE
:100A5000B046F0BD01226B6A022793436B62FFF739
:100A60009DFD060004E0FFF799FD801B02282ED8AB
:100A70006B6A1F42F7D12368A3E74268D20300D410
:100A800002E73F4A1268920300D427E76268002A0F
:100A900000D023E7D8E733683B433360FFF77EFDA0
:100AA000050004E0FFF77AFD401B64280FD8336887
:100AB0003B42F7D05AE7F825314822690168D20055
:100AC000A9430A4302601A0700D435E762E703200E
:100AD000BBE72B4D2B4A2B68802713402B602B68DC
:100AE000294ABF0213402B60FFF758FD060004E0BF
:100AF000FFF754FD801B6428E9D82B683B42F7D1EF
:100B00002368EBE601221E4E224D336A9343336283
:100B1000336A033293433362FFF740FD0223070039
:100B2000984604E0FFF73AFDC01BA842CFD84246E2
:100B3000336A1A42F6D14B46012B4FD0236842E765
:100B400001222B68022793432B60FFF727FD060045
:100B500004E0FFF723FD801B0228B8D82B681F4252
:100B6000F7D12368E6E606490A6A13430B62FFF7EA
:100B700015FD034B060098460227064D11E0C046BE
:100B800000100240FFFFFEFFFFFFFBFF0070004070
:100B9000FFFFFFFE88130000FFF700FD801BA84247
:100BA00095D843461B6A1F42F6D0C4E70422534D32
:100BB00002276B6B13436B636B6B033A93436B635B
:100BC000FFF7ECFC060005E0FFF7E8FC801B0228BD
:100BD00000D97CE76B6B1F42F6D109E7474A4849C9
:100BE000D3690B40D3612368EDE68022434BD202E8
:100BF00019680A431A608022196852020A431A606F
:100C00005BE604213D4B1A6A0A431A621A6A0339E9
:100C10000A431A62ABE7012B00D115E780236A680B
:100C2000616A5B020120ED6A13408B4200D00CE741
:100C30000F23E16A2B408B4200D006E7F0239B0391
:100C40001A40A36AD21A531E9A41D0B2FDE604217B
:100C50002A4D02276A6B0A436A636A6B13436B630C
:100C6000FFF79CFC060005E0FFF798FC801B0228BC
:100C700000D92CE76B6B1F42F6D0F8216A6BA36991
:100C80008A43DB0013436B63B2E62B681D4A80275F
:100C900013402B60FFF782FCBF04060005E0FFF75E
:100CA0007DFC801B022800D911E72B683B42F6D15E
:100CB0000F22EB6A114E9343E26A1343EB62616ABF
:100CC000A36A6A680B4310490A4013436B60802390
:100CD0002A685B0413432B60FFF760FC8025040047
:100CE000AD0405E0FFF75AFC001B022800D9EEE630
:100CF00033682B42F6D00020A7E6C0460010024021
:100D0000FFFFFFEFFFFFFFFEFFFFC2FFF8B5CE467C
:100D1000474604000D0080B500280DD001234F493F
:100D20000A681A40AA420CD20A689A432A430A6007
:100D30000A681340AB4204D00120C0BCB946B0469B
:100D4000F8BD23689A070ED55A0705D5E022444915
:100D5000D200486802434A60F02041494A68824311
:100D6000A06802434A60DB0722D53D4B62681B68DE
:100D7000012A65D0022A60D09B07DDD50321384EB9
:100D800073688B4313437360FFF708FC0C2398468A
:100D9000344B0700994604E0FFF700FCC01B4845B0
:100DA00051D8434672681A4063689B009A42F3D157
:100DB00001212A4A13680B40AB4205D913688B43C3
:100DC000136013681942B7D123685B0716D40C234C
:100DD00023494A681340042B1DD0082B1DD02248FC
:100DE0001F4B224A5B6822491B061B0FD35CD8406D
:100DF00008600320FFF72EFB00209EE7184A1D49DC
:100E000053680B40E1680B4353600C2314494A6854
:100E10001340042BE1D11848E2E70F251748930C43
:100E20002B40C45CC96AD2030FD5154B0D40595DE8
:100E30001148FFF769F96043D2E79B019ED47BE735
:100E40009B039BD478E7032077E76201121B930191
:100E50009B1ADB001B191802C2E7C04600200240A3
:100E6000001002408813000000127A008828000851
:100E700000000020FFF8FFFF0048E801A02800085C
:100E8000B02800080C23124970B54A681340042B9F
:100E900013D0082B0FD10F250E48930C2B40C45CA8
:100EA000C96AD2030BD50C4B0D40595D0B48FFF7B7
:100EB0002BF9604300E00A4870BD0848FCE7620176
:100EC000121B93019B1ADB001B191802F4E7C046A2
:100ED00000100240A0280008B02800080048E801DF
:100EE00000127A00044B054A5B6805495B055B0FFD
:100EF000CB5C1068D8407047001002400000002012
:100F0000982800080723032203600A4B10B55C6889
:100F100022404260F0225C6822408260E0225B68EE
:100F2000D2001340C360044B1A68012313400B60C6
:100F300010BDC0460010024000200240F0B5CE4671
:100F4000474680B50368040083B0DA0330D58022B9
:100F5000434B5205D9690027114241D08026414DAB
:100F600076002B68334249D03D4DC0232A6A9B004E
:100F7000100018401A4263D061680B4083420ED0C3
:100F800080202B6A2E6A400230432862286A364A43
:100F9000364E1A40304028622A62DB073FD4304A7E
:100FA0003148136A03400B431362012F51D0236869
:100FB000DA0706D503202A490A6B8243A068024358
:100FC0000A6300209B0606D51021254A136B8B432C
:100FD000E1680B43136303B0C0BCB946B046F0BD33
:100FE0008026D9691F4D1143D961DB697600134012
:100FF0000193019B2B6801373342B5D12B683343F2
:101000002B60FFF7CBFA80462B683342ACD1FFF759
:10101000C5FA4346C01A6428F6D90320DBE7FFF778
:10102000BDFA02239846124B0600994604E0FFF7EA
:10103000B5FA801B4845F0D842462B6A1A42F6D0D2
:10104000074A0948136A616803400B431362012F82
:10105000ADD1D36907490B40D3612368A8E7C046E7
:101060000010024000700040FFFCFFFFFFFFFEFF8A
:1010700088130000FFFFFFEF7047C04610B5041E45
:101080005BD03D23C35CDAB2002B48D03D23022263
:10109000E25422682A4913688A4215D029498A42B3
:1010A00042D029498A4243D028498A4210D028494F
:1010B0008A420DD080218B43A1690B431360E36802
:1010C000D3626368936212E070218B43A1680B4383
:1010D00020490B4021690B4380218B43A1690B43BD
:1010E0001360E368D36263689362636913630123E7
:1010F000536146220020A354083AA3540132A3545A
:101100000132A3540132A3540132A3540132A35437
:101110000132A3540132A354083AA35410BD3C3306
:10112000C254FFF7A9FFB1E770218B43A1680B43BD
:1011300008490B4021690B43BCE70120EEE7C0469C
:10114000002C014000040040002000400044014009
:1011500000480140FFFCFFFF3D22815C03000120AD
:1011600001290FD1013199541B68DA680243DA6012
:101170000B4A934207D00B4A934204D01A680243A9
:1011800000201A607047072299680A40062A05D095
:1011900001211A6800200A431A60F3E70020F1E7F2
:1011A000002C0140000400407047C0467047C04614
:1011B0007047C0467047C0460222036810B51969DF
:1011C00004000A4202D0D9680A4265D10422196992
:1011D0000A4202D0D9680A424BD1082219690A4250
:1011E00002D0D9680A4233D1102219690A4202D0CA
:1011F000D9680A421CD1012219690A4202D0D96871
:101200000A425CD1802219690A4202D0D9680A4296
:101210005CD1402219690A4202D0D9680A425DD1E4
:10122000202219690A4202D0D9680A4241D110BD70
:10123000213A1A6119322277DA69C0239B00200013
:101240001A425ED0FFF7B2FF002323772368D2E76C
:10125000113A1A610D322277DB6920009B074DD1CC
:10126000FFF7A2FF2000FFF7A3FF002323772368E7
:10127000BAE7093A1A61073222779A69C0239B00BC
:1012800020001A4237D1FFF78FFF2000FFF790FFB1
:10129000002323772368A0E7053A1A610432027716
:1012A0009B699B0721D0FFF781FF002323772368E9
:1012B0008CE7413A20001A6100F02AF8B7E7033AB8
:1012C0001A612000FFF768F823689BE7023AFF3AAB
:1012D0001A61200000F01EF823689AE7813A1A612B
:1012E0002000FFF767FF23689AE7FFF75DFF200004
:1012F000FFF75EFFD9E7FFF759FFC9E7FFF756FF92
:10130000B3E7FFF751FF2000FFF752FF9CE7C0460D
:101310007047C0467047C046436A30B5DA0706D505
:101320000168284C4A682240846A22434A609A072E
:1013300006D50168244C4A682240C46A22434A60A8
:101340005A0706D50168214C4A682240046B2243A3
:101350004A601A0706D501681D4C4A682240446B52
:1013600022434A60DA0606D501681A4C8A68224090
:10137000846B22438A609A0606D50168164C8A68F7
:101380002240C46B22438A605A060AD50168134D75
:101390004A68046C2A4022434A60802252039442E5
:1013A00009D01B0606D502680D4953680B40816CB5
:1013B0000B43536030BD4A680A4C2240446C2243C0
:1013C0004A60EEE7FFFFFDFFFFFFFEFFFFFFFBFFB1
:1013D000FF7FFFFFFFEFFFFFFFDFFFFFFFFFEFFFDD
:1013E000FFFFF7FFFFFF9FFFF0B584230022C646F3
:1013F000040000B5C250FFF7D1F8236805001A6851
:10140000120710D41A6852073CD420238022E367C5
:10141000A350002300202366636678230022E25451
:1014200080BCB846F0BDDA699202EBD4802608236E
:1014300004279846B60410E023681A68174209D0BA
:101440004146DA69114258D18022D969120111420C
:1014500000D083E0DA699202D4D4FFF79FF8401BF2
:10146000B042E9D3EFF31081012383F31088802089
:10147000226813688343136081F3108820237D382A
:10148000E367CAE7DB695B02BFD480260823042731
:101490009846B60411E023681A6817420AD04146FC
:1014A000DA69114200D089E08022D9691201114223
:1014B00000D0B4E0DB695B02A7D4FFF76FF8401BF4
:1014C000B042E8D3EFF31080012282F31088216844
:1014D0006B4D0B682B400B6080F31088EFF310808E
:1014E00082F3108821688B6893438B6080F31088A7
:1014F00080231F320320E2508FE71962EFF3108040
:10150000012282F3108821685D4D0B682B400B602F
:1015100080F31088EFF3108082F3108821688B68C5
:1015200093438B6080F31088236E012B0AD1EFF375
:10153000108183F31088102022681368834313609E
:1015400081F31088802320220821E2500023643296
:101550002366A366A1500C3AA35483E71A62EFF303
:101560001080012282F310882168454D0B682B40C2
:101570000B6080F31088EFF3108082F310882168ED
:101580008B6893438B6080F31088236E012B0AD104
:10159000EFF3108183F310881020226813688343CF
:1015A000136081F31088202280238421E2500023DD
:1015B0002366A36662505832A35453E71962EFF3CF
:1015C0001080012282F3108821682D4D0B682B407A
:1015D0000B6080F31088EFF3108082F3108821688D
:1015E0008B6893438B6080F31088236E012B0AD1A4
:1015F000EFF3108183F3108810202268136883436F
:10160000136081F31088802320220821E2500023F8
:1016100064322366A366A1500C3AA35452E71A62BF
:10162000EFF31080012282F310882168144D0B68BB
:101630002B400B6080F31088EFF3108082F310884A
:1016400021688B6893438B6080F31088236E012B95
:101650000AD1EFF3108183F31088102022681368F9
:101660008343136081F31088202280238421E25079
:1016700000232366A36662505832A35422E7C04673
:10168000DFFEFFFF70B5041E00D176E0C36F002BB4
:1016900067D0242301212268E367136825698B43FF
:1016A0001360A36810682B436569E1692B43494DBA
:1016B0000B4328400343136053684748256A03409F
:1016C000E06803435360A36990682B43434D28406F
:1016D00003439360424B1A6B03231340013B022BDD
:1016E0001FD980231B02994200D170E0FFF7FAFB5B
:1016F000002824D10023A366E366636A002B35D15A
:10170000236838495A6820000A4008215A609A68BC
:101710008A439A601A6807390A431A60FFF764FE21
:101720001BE08020304A0002D35C814227D0042B8A
:1017300044D013D8002BD9D0022B0AD12B48616892
:101740004B081818FEF7E0FC0200294B103A9A42A9
:1017500010D900230120A366E36670BD082BEED0EC
:10176000F7E778228354FEF741FE92E72000FFF767
:10177000D3FDC5E72368D860BCE70120EDE7042B63
:101780001FD016D8002B22D0022BE2D1194B616852
:101790004808C018FEF7B8FC0200154B103A9A42F0
:1017A000D7D8154B226803400007400F0343D3608E
:1017B000A0E7082BCDD180235B02E8E7FFF762FBAF
:1017C00096E7FFF75FFB43000028E0D192E7FFF7C1
:1017D00089FBF8E7F369FFFFFFCFFFFFFFF4FFFF8F
:1017E00000100240FFF7FFFFC028000800127A0037
:1017F000EFFF00000024F400F0FF000010B500F03F
:10180000C3FA002010BDC046F0B5456904000B00C6
:1018100087B0002D11D08669002E0ED02168226974
:101820000827E45F4068842C22D003340296019597
:10183000009400F039F907B0F0BD60682168228A91
:101840000825645F842C09D0033405AD019500940C
:1018500000F0E0F9012809D10598ECE7002405AD76
:101860000195009400F0D6F90128F5D00020E2E7B8
:101870000024DBE710B5002800D1013000F066FC41
:10188000002010BD0300083301224360C3600361E0
:1018900000235242826003607047C0460023036108
:1018A0007047C04643689A684B608A609A68516086
:1018B000996003680861013303607047030030B525
:1018C0000D6808336A1C0DD01C005B681A68AA42B8
:1018D000FAD94B60996003688C60013361600861DC
:1018E000036030BD04696368F3E7C046036941687B
:1018F00082688A6051605968814206D00022026184
:101900001A68013A1A60186870475A60F6E7C046CC
:10191000F0B5C64600B5040000F05EFD314A324E17
:101920001368013313603368002B2AD02F4F3B68B4
:10193000002B1ED0E26A2E4D2E490B6801330B603E
:101940002D4B1968914200D21A6093009B189800A1
:10195000211D2818FFF7A6FF00F04AFD3B68002B69
:1019600004D03368DA6AE36A9A4212D380BCB8467C
:10197000F0BD3368E26ADB6A934200D834601C4DE4
:10198000DAE734601368012B06D0E26A184D174F6E
:10199000D2E700F015FDE9E78C23154D98462F009E
:1019A000A84438001437FFF76DFFB845F9D1134B41
:1019B00098461800FFF766FF114F3800FFF762FFE7
:1019C0001048FFF75FFF1048FFF75CFF0F48FFF775
:1019D00059FF42460E4B1A600E4BE26A1F60034FDE
:1019E000AAE7C0460C04002074030020680400200D
:1019F000800300201C040020200400202404002078
:101A00003804002054040020800400206C040020CE
:101A1000780300207C030020F8B54746CE461E4BD5
:101A200080B598461D4B9D2799461D4D1D4E2B6830
:101A3000002B25D000F0D0FC4346DB68DC68201D7D
:101A4000FFF754FF3368013B33602B68013B2B6089
:101A500000F0CEFC20004C3000F018FEE35D002BBF
:101A600005D0012B13D0022BE1D072B6FEE7206B1C
:101A700000F0BCFD200000F0B9FD2B68002BD9D18F
:101A80004B461B68012BD2D900F09AFCCFE720000F
:101A900000F0ACFDCBE7C0468004002080030020AE
:101AA000100400200C040020F0B54746CE4680B557
:101AB00083B01F000B9B05000C9C002B0AD0002C50
:101AC00006D0A0230193019BA02B05D072B6FEE7A0
:101AD00072B6FEE772B6FEE70B9B022023639D23DE
:101AE000E0544A4B9C460B9B62449C46072396005D
:101AF000342266449E430B78A354002B48D04B7885
:101B00000132A354002B43D08B780132A354002B15
:101B10003ED0CB780132A354002B39D00B7901325F
:101B2000A354002B34D04B790132A354002B2FD077
:101B30008B790132A354002B2AD0CB790132A354E4
:101B4000002B25D00B7A0132A354002B20D04B7AE6
:101B50000132A354002B1BD08B7A0132A354002BEB
:101B600016D0CB7A0132A354002B11D00B7B01325B
:101B7000A354002B0CD04B7B0132A354002B07D075
:101B80008B7B0132A354002B02D04323CA7BE25447
:101B900043230022E2540A9B9846062B33D843463F
:101BA000E36263640023201DA3649946FFF776FE79
:101BB00020001830FFF772FE424607239B1AA361EC
:101BC0004A469823200024616462E2500433E254C0
:101BD00000214C324C3000F051FD0D4B29001A0011
:101BE00023656832D0336265A3653A00300000F0A7
:101BF00099FB20602000FFF78BFE200003B0C0BCE3
:101C0000B946B046F0BD06239846C8E7FFFFFF3F40
:101C1000B40C0020F8B54E464546DE465746E0B5C2
:101C20009700804638000D00994600F02DFC061EF6
:101C300000D19AE0A02000F027FC041E00D19AE019
:101C40009D2300220663C2542B7834328354002B28
:101C500048D06B7801328354002B43D0AB780132EB
:101C60008354002B3ED0EB7801328354002B39D0C3
:101C70002B7901328354002B34D06B790132835499
:101C8000002B2FD0AB7901328354002B2AD0EB7973
:101C900001328354002B25D02B7A01328354002B40
:101CA00020D06B7A01328354002B1BD0AB7A0132E7
:101CB0008354002B16D0EB7A01328354002B11D0C1
:101CC0002B7B01328354002B0CD06B7B013283546D
:101CD000002B07D0AB7B01328354002B02D043236F
:101CE000EA7BC25443230022E2540A9B9A46062B05
:101CF0003ED85346E36263640023201DA3649B46E1
:101D0000FFF7CCFD20001830FFF7C8FD072553462C
:101D1000EB1AA3615A469823200024616462E250C2
:101D20000433E25400214C324C3000F0A7FC154B38
:101D3000043F1A00F619300023656832D03362651B
:101D4000A3654A464146A84300F0ECFA0B9B20608D
:101D5000002B00D01C602000FFF7DAFD0120F0BC52
:101D6000BB46B246A946A046F8BD01204042F6E770
:101D700006239A46BDE7300000F038FC01204042BF
:101D8000EDE7C046B40C0020F0B5002485B002AAEF
:101D9000684601A900940194FEF742FA019B029A59
:101DA000009D002B0AD0002D06D0A021039103999D
:101DB000A02905D072B6FEE772B6FEE772B6FEE75E
:101DC0009D2102202B636854234907278C466244D7
:101DD00092009B18BB431E00204B281D6B633823C9
:101DE000EC540B33EC54EC626C64AC64FFF756FDBE
:101DF00028001830FFF752FD982328002D61AF61AD
:101E00006D62EC500433EC544C2200214C3000F055
:101E100035FC134B13491A002B656832D0336A65C1
:101E2000AB650022300000F07DFA28602800FFF743
:101E30006FFD72B60C4B0D4A1B684C3313600122C8
:101E40000B4B52421A600B4B02321A600A4B1C6059
:101E500000F07AFA05B0F0BDFFFFFF3F49444C4562
:101E6000B40C0020191A0008740300205C00002044
:101E70004C0400206804002094040020024A1368E7
:101E8000013313607047C04618040020F0B5DE46E9
:101E900057464E464546E0B5524B83B01B68002B73
:101EA0004AD1514B1E6801361E60002E58D04F4B50
:101EB0009A4653461B68B3426BD84D4F3B681B682C
:101EC000002B00D17AE0002398464A4B01934A4BFD
:101ED0009B464A4B994626E0251D2800FFF706FD44
:101EE000A36A002B03D020001830FFF7FFFC4A46FE
:101EF000E36A1268934201D94A4613609800C018F9
:101F0000019B80009C4629006044FFF7CBFC5B46A8
:101F10001B68E26ADB6A9A4201D3012398463B6858
:101F20001B68002B50D03B68DB68DC6863689E420E
:101F3000D2D25246136032E0314A13680133136043
:101F4000002398462F4B1B68002B01D00123984695
:101F5000404603B0F0BCBB46B246A946A046F0BD21
:101F6000234B1A681268002A26D1274A196810687C
:101F70001860116025490A6801320A601A681268FF
:101F8000002A26D1194B9A46012352465B42136020
:101F90008FE700239846174B0193174B9B465B46F0
:101FA0001B68DA6A93009B18019A9B00D358012B97
:101FB000C8D901239846C5E772B6FEE700239846C4
:101FC0000C4B01930C4B9B46012352465B42136022
:101FD000E5E71B68054ADB689246DB685B681360CF
:101FE00067E7C04618040020940400204C04002039
:101FF00078030020800300207403002020040020C8
:1020000014040020980400207C03002050040020C9
:10201000F8B5DE4657464E464546E0B500F0DCF9D9
:102020003A4B1A68013A1A601B68002B54D1384B9E
:102030001B68002B50D0374E3368002B62D0364BD4
:10204000364F9946364B9846364B9A4601239B4667
:10205000F368DC682000251D1830FFF747FC2800D6
:10206000FFF744FCE36A3A68934200D93B6098006A
:10207000C018800029004844FFF714FC43461B6841
:10208000E26ADB6A9A4231D353465A461A60336891
:10209000002BDDD1244B1A681268002A2ED01B6851
:1020A000DB68DB685A68214B1A60214E3468002CCB
:1020B0000AD00125FFF7EAFE002801D053461D6033
:1020C000013C002CF6D1346053461B68002B03D032
:1020D00000F076F9012400E0002400F089F92000E6
:1020E000F0BCBB46B246A946A046F8BD3368002BFB
:1020F000AED10D4B1A681268002AD0D10B4B013AB1
:102100001A60D2E7074B9A46CFE7C0461804002072
:102110000C04002054040020800300202004002030
:102120007403002098040020780300204C04002051
:1021300014040020044B10B51B68002B01D172B6AB
:10214000FEE7FFF765FF10BD18040020F8B5041E78
:1021500028D0194D2B68002B01D072B6FEE72B68F2
:10216000164E01332B60164B1F683068E41904309B
:10217000FFF7BCFB33685C60A74216D8114B1868A8
:1021800031680431FFF79AFB0F4B1A68944200D272
:102190001C602B68002B01D172B6FEE7FFF738FFF9
:1021A000002801D100F00CF9F8BD084B186831681F
:1021B0000431FFF783FBECE71804002074030020D0
:1021C00094040020780300204C0400207C030020AD
:1021D000374B30B51B68002B03D00122354B1A60FA
:1021E00030BD344A344813600268344993009C1867
:1021F000A4000C59002C41D1002A3CD0541EA3004D
:102200001D19AD004D59002D37D1002C33D0941E2F
:10221000A3001D19AD004D59002D2ED1002C2AD040
:10222000D41EA3001D19AD004D59002D25D1002C41
:1022300021D0141FA3001B199B00CB58002B33D1B6
:10224000002C18D0541FA3001D19AD004D59002DAE
:1022500013D1002C0FD0941FA3001D19AD004D59B0
:10226000002D0AD1002C06D0073A93009C18A40038
:102270000C59002C02D172B6FEE722009B189B007D
:10228000CD186C6808336468C9186C608C4208D03B
:102290000B4BE168196002601B680A4A4C331360FB
:1022A0009EE764686C60F3E72200A300E6E7C0469F
:1022B000180400209804002020040020800300203F
:1022C000740300205C000020002382B00193064BC1
:1022D0001B68013301D072B6FEE772B6019B002B7A
:1022E000FCD002B07047C0460C0000200000000087
:1022F0000B4A13681868203080F30988022080F3A5
:102300001488BFF36F8F3FBCAE4608BC04BC62B6F6
:102310001847C046C046C046C046C046C046C04634
:102320007403002010B58024031F64041C60043B68
:1023300019600349043B1960143B40381A6010BD12
:10234000C92200087047C046FF22174B12041968C3
:1023500030B50A431A60FF221968002412060A43A6
:10236000FA211A60114D124B2C601C60114B83B086
:1023700018688900FDF7C8FE0F4B01381860072365
:102380002B600E4D2C60FFF7B3FFFFF721FF2B688A
:102390000194013301D072B6FEE772B6019B002BA7
:1023A000FCD0002003B030BD20ED00E010E000E0E4
:1023B00018E000E00000002014E000E00C00002025
:1023C0008022044B52051A60BFF34F8FBFF36F8F0B
:1023D0007047C04604ED00E072B6044A136801334A
:1023E0001360BFF34F8FBFF36F8F70470C00002057
:1023F000054A1368002B01D172B6FEE7013B13605A
:10240000002B00D162B670470C000020EFF3108063
:1024100072B6704780F310887047C0460000000015
:10242000EFF309800E4B1A6820381060F0C0444664
:102430004D4656465F46F0C008B572B6FFF7C8FE77
:1024400062B60CBC116808681030F0C8A046A946F6
:10245000B246BB4680F309882038F0C81847C0460A
:102460007403002010B5FFF7D1FF0400FFF70EFD45
:10247000002803D08022034B52051A602000FFF78A
:10248000C9FF10BD04ED00E0F8B5CE46474680B563
:102490000400FFF7F3FC4F4A1568002D5FD04E4B48
:1024A0001B689846434623422AD1002C28D020009E
:1024B00007230830034201D09843083000281FD07A
:1024C000464B99461B689C46834219D3444F3C00B7
:1024D0003B6804E01A68002A04D01C001300596805
:1024E0008142F7D3AB420BD01E001A680836226037
:1024F0000A1A102A20D919184C0709D072B6FEE71B
:10250000FFF718FE00263000C0BCB946B046F8BD43
:102510004A603A005860100012689142FBD8446843
:102520000719B94244D04C680F19BA424AD00A6020
:10253000884200D00160596862464846521A0260DB
:1025400028480468A24231D342460A435A60002216
:102550001A60FFF7EFFD7307D5D072B6FEE70721CB
:10256000214B19421AD1802109015D181900002060
:102570001B4E083D706031600726B5431560194A4F
:10258000EB1A1360154A68601360802228604B6064
:10259000114B120690460D601A6083E78025D81D06
:1025A0002D015D1903008B431900E0E70260CBE7C2
:1025B00049686418011944608A4202D0596802606F
:1025C000BAE70100AA42B2D0556812682C194C60D3
:1025D000ADE7C0469C040020A00C0020A40C002005
:1025E000AC0C0020A80C0020A004002070B500282E
:1025F00029D01E4A08384368126804001A4204D0E1
:102600000168002903D072B6FEE772B6FEE7934375
:1026100043600500FFF732FC154A616813685B18D8
:102620001360144B1A001B689C42FBD850681618A4
:10263000B44209D06418A3420ED02B60AA4200D045
:102640001560FFF777FD70BD09185018516083427F
:1026500001D01360F5E71500074800688342ECD00D
:1026600058681B6841186960E7E7C046A00C002065
:10267000A40C0020AC0C00209C0400200300821855
:10268000934200D1704719700133F9E72D4B70B5B3
:102690001B680400834242D0C369002B0AD0002586
:1026A000DB68AB4240D1E3691968002902D0200001
:1026B00000F070F86169002902D0200000F06AF88B
:1026C000E169002902D0200000F064F8216B0029A4
:1026D00002D0200000F05EF8616B002902D02000DB
:1026E00000F058F8A16B002902D0200000F052F849
:1026F000A16C002902D0200000F04CF8616C002988
:1027000002D0200000F046F8E16A002902D0200043
:1027100000F040F8236A002B01D02000984770BDDC
:102720004959002908D10435E369D968802DF7D1CA
:10273000200000F02FF8B6E70E68200000F02AF81D
:102740003100EEE75C00002070B500260C4C0D4D0A
:10275000641BA410A64209D1002600F075F80A4CAB
:102760000A4D641BA410A64205D170BDB300EB58FE
:1027700098470136EEE7B300EB5898470136F2E789
:10278000C4280008C4280008C8280008C428000875
:102790007047704770B50500002910D00C1F2368E2
:1027A000002B00DAE418280000F03EF81D4A1368F8
:1027B000002B05D163601460280000F03DF870BD67
:1027C000A34208D9206821188B42F3D119685B68AD
:1027D00009182160EEE71A005B68002B01D0A342C4
:1027E000F9D911685018A0420BD120680918501867
:1027F00011608342E0D118685B6841181160536032
:10280000DAE7A04202D90C232B60D5E72068211813
:102810008B4203D119685B680918216063605460BA
:10282000CAE7C046F00D002010B50248FFF7B0FF20
:1028300010BDC046EC0D002010B50248FFF7A9FFFF
:1028400010BDC046EC0D0020F8B5C046F8BC08BC71
:102850009E467047F8B5C046F8BC08BC9E46704717
:102860007C28000839020008000000000000000079
:102870006000000000000000000000006465666168
:10288000756C745461736B00000000000000000060
:102890000102030406070809000000000102030406
:1028A00002030405060708090A0B0C0D0E0F101091
:1028B0000102030405060708090A0B0C0D0E0F1090
:0428C0000408020006
:0428C400E90000081F
:0428C800C100000843
:1028CC0000127A000100000004000000AAAAAAAAC3
:1028DC0000000000B40C00201C0D0020840D002012
:1028EC0000000000000000000000000000000000DC
:1028FC0000000000000000000000000000000000CC
:10290C0000000000000000000000000000000000BB
:10291C00000000000000000000000000100000207B
:0400000508000511D9
:00000001FF
